:020000040800F2
:10000000FCFF0020791900005D1900005D19000057
:100010005D1900005D1900005D1900005D19000008
:100020005D1900005D1900005D1900005D190000F8
:100030005D1900005D1900005D1900005D190000E8
:100040005D1900005D1900005D1900005D190000D8
:100050005D1900005D1900005D1900005D190000C8
:100060005D1900005D1900005D1900005D190000B8
:100070005D1900005D1900005D1900005D190000A8
:100080005D1900005D1900005D1900005D19000098
:100090005D1900005D1900005D1900005D19000088
:1000A0005D1900005D1900005D1900005D19000078
:1000B0005D1900005D1900005D1900005D19000068
:1000C0005D1900005D1900005D1900005D19000058
:1000D0005D1900005D1900005D1900005D19000048
:1000E0005D1900005D1900005D1900005D19000038
:1000F0005D1900005D1900005D1900005D19000028
:100100005D1900005D1900005D1900005D19000017
:100110005D1900005D1900005D1900005D19000007
:100120005D1900005D1900005D1900005D190000F7
:100130005D1900005D1900005D1900005D190000E7
:100140005D1900005D1900005D1900005D190000D7
:1001500001480068704700BF8800002081B019493D
:1001600000EA0101084600220EE0042022E00820F7
:1001700020E010201EE020201CE040201AE080201B
:1001800018E040F2001015E00F498842EDD00F4909
:100190008842ECD00E498842EBD00E498842EAD022
:1001A0000D498842E9D00D498842E8D00C4988427F
:1001B000E7D010460B49096841EA000209490A6084
:1001C00001B0704700FCFFFF00080140000C014037
:1001D000001001400014014000180140001C0140C3
:1001E000002001401810024083B0CDF800E000F07C
:1001F000FF031A09104603F00F02134614E0194AD0
:1002000002921FE0184A02921CE0184A029219E07A
:10021000174A029216E0174A029213E0164A029217
:1002200010E0164A02920DE00028E8D00128E9D03B
:100230000228EAD00328EBD00428ECD00528EDD022
:100240000628EED0012212B29A40ADF8042002989E
:100250000A46BDF8041000F021F9DDF800E003B013
:10026000704700BF00080140000C01400010014031
:100270000014014000180140001C01400020014012
:1002800082B0CDF800E0034619460191FFF760FF08
:1002900040F2E83100FB01F201990A601F49097838
:1002A000C1F30311C8B21E4909180878C0B21A1D5B
:1002B0001968C140116019490988C1F3022188B247
:1002C000174909180878C0B203F20802191D096815
:1002D000C140116011490988C1F3C22188B2104997
:1002E00009180878C0B203F20C02191D0968C14050
:1002F00011600A490988C1F3813188B20949091896
:100300000978C8B203F2100203F20C010968B1FBCC
:10031000F0F11160DDF800E002B070470410024017
:10032000641D0000841D000081B000230360CB0029
:100330009BB242EA030304689BB244EA03030360EE
:10034000051D13141C462B6864F382032B6000F216
:100350001C0500242B6864F3CB232B600124036865
:1003600064F38613036001B07047FFFF81B0ADF8FE
:1003700000100146BDF800000B68C3F3C01202B9BB
:10038000FAE70A1D106001B07047FFFF81B0CDF899
:1003900000E0012252B23E490A6000F268010B6897
:1003A0006FF0006103EA0102144603F00061C90E18
:1003B0000B4602F00041B1F1004F02D135490A6805
:1003C00001E035490A6804F47021090C0E464FF625
:1003D000FF7104EA01010D4604F44011B1F5401F1C
:1003E0000DD16FF0706102EA01010E462A490A68D8
:1003F0006FF070610A4028490A60324616E004F442
:100400008011B1F5801F09D14FF00301B140C943FC
:1004100002EA010141F070610A4607E0610D09013D
:1004200005FA01F1C9430A4042F070622BB1610D37
:10043000090105FA01F10A43FFE704F00041B1F1B7
:10044000004F02D113490A6001E013490A6040F2EB
:10045000000A81464FEA8A0109EB01010968B1F1FE
:10046000FF3F10D009F134014FEA8A03C918096827
:100470000A4609EB0301096808461146FFF7B4FE76
:100480000AF1010AE6E7DDF800E001B0704700BFBD
:10049000000342421C0001400400014081B0CDF83D
:1004A00000E08CB21546774B00EA03031E4618465F
:1004B000FFF754FEB4F1FF0F0CD1734B9D4203D1F3
:1004C0004FF033333360D9E0422D03D14FF0443342
:1004D0003360D3E04FF6FF739C4214D16A4B9D42C8
:1004E00007D14FF033333360341D4FF03333236083
:1004F000C4E0422D07D14FF044333360341D4FF038
:1005000044332360BAE00021002005F001030BB161
:1005100000211DE005F0020333B105F4C0730BB1F7
:10052000082100E0042113E005F0040333B105F0D5
:1005300020030BB1042100E0002109E005F00803CD
:1005400033B105F020030BB10C2100E00821FFE7D7
:100550004E4B05EA03030BB1032009E005F40073D9
:100560000BB1022004E005F480630BB10120FFE72A
:1005700005F00C030BB10143FFE704F0FF039BB24E
:10058000002B3BD0376800201FFA84F832462E46F5
:1005900008282CD24FF0010303FA00F408EA040300
:1005A000A34222D185004FF00F03AB40DB4307EAA3
:1005B000030401FA05F344EA03031D4606F48173BC
:1005C000B3F5817F05D102F214044FF0010383409B
:1005D000236006F08203822B05D102F210044FF053
:1005E0000103834023602F46FFE7401CD0E71760DC
:1005F0001FFA88F00F463146164602E00F4629469C
:10060000A0B2B0F1FF0F39D9331DD3F8008000221A
:10061000082A30D202F208044FF0010303FA04F46E
:1006200000EA0403A34224D195004FF00F03AB402E
:10063000DB4308EA030807FA05F348EA030801F474
:100640008173B3F5817F07D106F2140502F2080425
:100650004FF00103A3402B6001F08203822B07D1EE
:1006600006F2100502F208044FF00103A3402B60CC
:10067000FFE7521CCCE7331DC3F80080DDF800E033
:1006800001B0704700FCFFFF1400080000080800DC
:1006900081B000F20C02116000F208021368C3F38B
:1006A000000202B9F8E700F20C02126890B201B041
:1006B0007047FFFF89B0CDF800E0834698B28C46C2
:1006C000BDF824100A9E04ACADF80410ADF8080083
:1006D0002046FFF7D5FDBDF80800BDF80410644CB6
:1006E000A34512D101256DB2624C2560624D634C69
:1006F0002560634D634C2560634D644C2560644DFB
:10070000644C2560079C039456E0634CA34512D1CA
:1007100001256DB2614C2560614D584C2560614DDD
:10072000584C2560604D594C2560604D594C2560F2
:10073000069C039440E05E4CA34512D101256DB2A6
:100740005C4C25605C4D4D4C25605C4D4D4C2560EE
:100750005B4D4E4C25605B4D4E4C2560069C0394D2
:100760002AE0594CA34512D101256DB2574C2560A2
:10077000574D424C2560574D424C2560564D434CD9
:100780002560564D434C2560069C039414E0544C60
:10079000A34511D101256DB2524C2560524D374C05
:1007A0002560524D374C2560514D384C2560514DD8
:1007B000384C2560069C0394ADF80410ADF8080091
:1007C0003046FFF7E3FDBDF80800BDF804100BF15B
:1007D000100500242C600BF110052C680C432C60D4
:1007E0000BF10C0500242C6018B140F4806080B23D
:1007F000FFE70BF10C052C6804432C600BF10C0691
:100800000125346865F34D3434600BF10C06012585
:10081000346865F3C30434600BF10C0601253468B9
:1008200065F3820434600BF1140500242C60039DF1
:10083000192465434FEA8C04B5FBF4F76424B7FB35
:10084000F4F42601350964246C433C1B240104F2B2
:1008500032056424B5FBF4F404F00F0446EA040402
:100860000BF10805A4B22C60DDF800E009B0704778
:100870000038014038034242FD0900009400002086
:10088000FFFFFFFF98000020FFFFFFFF9C000020FC
:10089000FFFFFFFFA000002000440040C4034242CD
:1008A000B9090000FFFFFFFFFFFFFFFFFFFFFFFF92
:1008B00000480040C803424249090000FFFFFFFF13
:1008C000FFFFFFFFFFFFFFFF004C0040CC03424251
:1008D000190A0000FFFFFFFFFFFFFFFFFFFFFFFF01
:1008E00000500040D0034242110B0000FFFFFFFF09
:1008F000FFFFFFFFFFFFFFFF81B0CDF800E0019D8C
:100900002C4610B408B493B28AB201460348FFF7EC
:10091000D1FE02B0DDF800E001B0704700440040B5
:1009200081B0CDF800E0019D2C4610B408B493B21C
:100930008AB201460348FFF7BDFE02B0DDF800E0D1
:1009400001B070470048004081B0CDF800E081B2AE
:100950000348FFF70BFDDDF800E001B0704700BF72
:100960000048004081B0CDF800E081B20348FFF7B5
:100970008FFEDDF800E001B0704700BF003C004092
:1009800081B0CDF800E081B20348FFF781FEDDF8C9
:1009900000E001B0704700BF0038004081B0CDF8E2
:1009A00000E081B20348FFF773FEDDF800E001B01C
:1009B000704700BF0030014081B0CDF800E081B247
:1009C0000348FFF7D3FCDDF800E001B0704700BF3B
:1009D0000044004081B0CDF800E0019D2C4610B4E9
:1009E00008B493B28AB201460348FFF763FE02B02F
:1009F000DDF800E001B070470038014081B0CDF86B
:100A000000E081B20348FFF7B1FCDDF800E001B07F
:100A1000704700BF0038014081B0CDF800E081B2DE
:100A20000348FFF7A3FCDDF800E001B0704700BF0A
:100A3000004C004081B0CDF800E081B20348FFF7E0
:100A400027FEDDF800E001B0704700BF003800402D
:100A500081B0CDF800E081B20348FFF719FEDDF860
:100A600000E001B0704700BF0030014081B0CDF818
:100A700000E081B20348FFF70BFEDDF800E001B0B3
:100A8000704700BF003C004081B0CDF800E04FF05F
:100A9000420289B2FFF702FDDDF800E001B07047C5
:100AA00081B0CDF800E0044A89B2FFF7F7FCDDF829
:100AB00000E001B0704700BF1400080083B0CDF81B
:100AC00000E08DF8040002910B4C0C4B1C600C4CA8
:100AD0000C4B1C60012464B20B4B1C601046FFF7EA
:100AE00055FC029A9DF804100848FFF71DFCDDF83C
:100AF00000E003B0704700BF6D0A00008C000020CA
:100B00006509000090000020BC034242003C004008
:100B100081B0CDF800E081B20348FFF727FCDDF893
:100B200000E001B0704700BF00500040014908607C
:100B3000704700BF9881224201490860704700BF9A
:100B40009481224201490860704700BF9C81214284
:100B500001490860704700BF98812142014908603F
:100B6000704700BFB001224201490860704700BFD2
:100B7000B081224201490860704700BFAC012242A7
:100B800001490860704700BFB081224201490860F6
:100B9000704700BFA8012242026803490A60011D94
:100BA0000A6802490A607047800000208400002023
:100BB00081B00A46014600200D4611460A2805D29A
:100BC0000B1820221A70401C80B2F7E70B18002285
:100BD0001A70401E80B20C180A23B5FBF3F203FB17
:100BE0001252303222700A22B5FBF2F2154602B9D7
:100BF00002E0401E80B2EEE701B0704781B082F0A3
:100C000000422DE9FA414FEA02244FEA42052D0E37
:100C100004D1002C18BF4FF000006CE044F00044F9
:100C2000FF2D5FD04FEA9404002A48BF64424FEA88
:100C300000214FEA40031B0E05D1002914BF4FF0DD
:100C40000000104657E041F00041FF2B4BD04FEA27
:100C50009101002848BF49425E1B41BF0F46214613
:100C60003C46764248BF2B46192E47BF44FA06F74A
:100C7000C9194FF0000803E0C6F11C0704FA07F891
:100C8000002904BF4FF0000035E046BF49424FF055
:100C900001074FF00007A3F101034900FBD511F054
:100CA00080040DD001F0200548EA0508803128BFF6
:100CB0005B1C01F0400458EA040808BF21F480716D
:100CC0009B1CDCBF4FF0000015E0FF2B0DD221F084
:100CD000FF014FEA41014FEA512040EAC35040EA88
:100CE000C77008E010464FEAD0774FEAC777FF2079
:100CF0004FEAC0503843BDE8FA4101B07047FFFFEA
:100D000083B0CDF800E0ADF808100190BDF80830D0
:100D1000BDF80820521EADF808204BB10020064C4B
:100D20002468A047019A1070019A521C0192EDE7C5
:100D3000DDF800E003B070478400002081B006B504
:100D40004FEA40024FEA12627F3A44BF4FF0000080
:100D500011E0D2F11F0209D94FEA002141F0004110
:100D6000D14000284CBF4842084604E000284FF01C
:100D7000004058BF401EBDE8064001B07047FFFF6D
:100D800081B0FAB590EA02064CBF4FF000464FF032
:100D90000006010243001B0E12BF41F000414FF05C
:100DA00000003BE0FF2B35D05FEA02245FEA4205FA
:100DB0005FEA156511BF44F000444FF0FF40304337
:100DC0002CE0FF2D26D05B1B00202027640849085B
:100DD000A14240EB000028BF091B7F1E04D0002960
:100DE00018BF4900F4D1B84010F0004F04BF4000D4
:100DF000B3F1010380302CBF5B1C40007F33DCBFAC
:100E00004FF000000AE0FF2B04D2400A40EAC35032
:100E1000304303E0FF27FF0556EA0700BDE8FA402C
:100E200001B0704781B0CDF800E00178CCB2A0B23B
:100E3000034C2468A0470020DDF800E001B07047B3
:100E40007800002000F208010A6801490A60704732
:100E50007C00002081B0002808BF19E006B554BF0F
:100E60000146D0F100014FF09E0202D4521E49000B
:100E7000FCD580312CBF521C49004FEA512141EA78
:100E8000C25100284CBF41F000400846BDE8064072
:100E900001B0704781B0FAB590EA02064CBF4FF03E
:100EA00000464FF000064FEA00214FEA40031B0EB8
:100EB00012BF41F000414FF000002CE0FF2B26D084
:100EC0004FEA02244FEA42052D0E12BF44F00044BF
:100ED0004FF000001FE0FF2D19D05B19A1FB045457
:100EE000002C5CBF64005B1E803424BF5B1C640864
:100EF0007E3BDCBF4FF000000DE0FF2B07D24FEA36
:100F0000142030F4000040EAC350304303E0FF27D0
:100F1000FF0546EA0700BDE8FA4001B07047FFFF51
:100F200001490860704700BFB881224281B0CDF806
:100F300000E0094902B440F2000340F2000240F22E
:100F40000001FFF7D9FC01B0044A05490A600020FE
:100F5000DDF800E001B07047C01B0000B9090000D7
:100F60007800002081B0CDF800E0094902B440F2D9
:100F7000000340F2000240F20001FFF72BFD01B038
:100F8000044A05490A600020DDF800E001B070471E
:100F90002C1C0000FD0900007800002001490860B9
:100FA000704700BF9001214201490860704700BFAF
:100FB000B481224201490860704700BF8801224283
:100FC00081B0CDF800E0094902B440F2000340F2DC
:100FD000000240F20001FFF78FFC01B0044A05490E
:100FE0000A600020DDF800E001B07047C01B00007F
:100FF000B90900007800002081B0CDF800E0A9E038
:10100000012905D140F220016548FFF73DFD04E0CC
:1010100040F220016248FFF743FDBBE0012905D102
:1010200040F208015F48FFF72FFD04E040F208019D
:101030005C48FFF735FDADE0012905D144F2000120
:101040005948FFF721FD04E044F200015648FFF73C
:1010500027FD9FE0012905D140F200415148FFF7EB
:1010600013FD04E040F200414E48FFF719FD91E006
:10107000012905D140F600014A48FFF705FD04E0CB
:1010800040F600014748FFF70BFD83E0012905D139
:1010900041F200014348FFF7F7FC04E041F2000190
:1010A0004048FFF7FDFC75E0012905D141F2000140
:1010B0003D48FFF7E9FC04E041F200013A48FFF740
:1010C000EFFC67E0012905D140F600013648FFF743
:1010D000DBFC04E040F600013348FFF7E1FC59E097
:1010E000012905D140F240012F48FFF7CDFC04E073
:1010F00040F240012C48FFF7D3FC4BE0012905D119
:1011000040F220012848FFF7BFFC04E040F2200134
:101110002548FFF7C5FC3DE0012905D140F240011B
:101120002248FFF7B1FC04E040F240011F48FFF7FE
:10113000B7FC2FE0012905D140F280011B48FFF7E1
:10114000A3FC04E040F280011848FFF7A9FC21E06D
:10115000012020E000283FF453AF01283FF45EAFA8
:1011600002283FF469AF03283FF474AF04283FF42A
:101170007FAF05283FF48AAF06283FF495AF0728D4
:10118000A0D00828ACD00928B8D00A28C4D00B2891
:10119000D0D0DDE70020DDF800E001B0704700BFEF
:1011A000000801400010014000140140000C014003
:1011B00081B0CDF800E0A9E0012905D140F210018D
:1011C0006548FFF761FC04E040F210016248FFF758
:1011D00067FCBBE0012905D140F204015F48FFF73D
:1011E00053FC04E040F204015C48FFF759FCADE019
:1011F000012905D142F200015948FFF745FC04E0FE
:1012000042F200015648FFF74BFC9FE0012905D14F
:1012100040F200415148FFF737FC04E040F2004142
:101220004E48FFF73DFC91E0012905D140F6000151
:101230004A48FFF729FC04E040F600014748FFF761
:101240002FFC83E0012905D141F200014348FFF75B
:101250001BFC04E041F200014048FFF721FC75E06F
:10126000012905D140F201013B48FFF70DFC04E0E4
:1012700040F201013848FFF713FC67E0012905D16E
:1012800040F200413648FFF7FFFB04E040F2004126
:101290003348FFF705FC59E0012905D140F2002150
:1012A0002F48FFF7F1FB04E040F200212C48FFF744
:1012B000F7FB4BE0012905D140F200112848FFF768
:1012C000E3FB04E040F200112548FFF7E9FB3DE0B5
:1012D000012905D140F240012248FFF7D5FB04E087
:1012E00040F240011F48FFF7DBFB2FE0012905D149
:1012F00040F280011B48FFF7C7FB04E040F2800189
:101300001848FFF7CDFB21E0012020E000283FF442
:1013100053AF01283FF45EAF02283FF469AF0328C2
:101320003FF474AF04283FF47FAF05283FF48AAF41
:1013300006283FF495AF0728A0D00828ACD009288C
:10134000B8D00A28C4D00B28D0D0DDE70020DDF8C3
:1013500000E001B0704700BF0008014000100140EC
:1013600000140140000C014081B0CDF800E0011DE7
:101370000A680168C8B21146034AFFF79FFB0020C4
:10138000DDF800E001B07047981C000081B0CDF896
:1013900000E0094902B440F2000340F2000240F2CA
:1013A0000001FFF7BDFA01B0044A05490A600020B8
:1013B000DDF800E001B07047541B0000490900004F
:1013C0007800002081B0CDF800E0011D0A680168B6
:1013D000C8B21146034AFFF771FB0020DDF800E0B8
:1013E00001B07047981C000001490860704700BFB9
:1013F000A081224201490860704700BFA4812242B7
:1014000001490860704700BFA88122420149086075
:10141000704700BF9881214201490860704700BFB2
:101420008C01224201490860704700BF94012142AB
:1014300001490860704700BF9C8121420149086052
:10144000704700BF8001214201490860704700BF1A
:10145000B001224201490860704700BFAC0122423E
:1014600001490860704700BFA801224281B0CDF851
:1014700000E0FFF7EFFC094AFFF70CFD084AFFF711
:101480007FFC074AFFF7BAFB064AFFF703FDFFF7A9
:1014900055FCDDF800E001B0704700BF05002036C4
:1014A0006666E63E00007A4483B0CDF800E002466E
:1014B00010460D228DF808200A228DF809201FE021
:1014C000FFF7B0FC23E002782AB10190FFF7AAFCF5
:1014D0000198401CF7E71AE002782AB10190FFF763
:1014E000A1FC0198401CF7E702AA1046FFF79AFCFE
:1014F0000DF109021046FFF795FC08E0062007E011
:101500000029DDD00129DED00229E5D0F6E7002050
:10151000DDF800E003B0704781B0CDF800E00E4682
:1015200000210346002804DA0121404200468FB220
:1015300001E018468FB23146FFF73AFB0B213446E3
:10154000B8B2002908D963184A1E92B2A2181278BC
:101550001A70491E89B2F4E72022227070B100206F
:1015600081B2204642181278202A02D1491C89B241
:10157000F8E74A1E92B283182D221A70DDF800E0B7
:1015800001B0704781B0014640F200052DB2084617
:101590000C460B46FFE70178202901D105B904E08C
:1015A00001252DB201782170641C0246401C11787F
:1015B0000029F0D1184601B07047FFFF81B0CDF887
:1015C00000E05FFA81F95FFA82FA0FE05FFA8AF1D0
:1015D0005FFA89F0FFF7ECFD0DE05FFA8AF15FFA40
:1015E00089F0FFF709FD06E0012004E00028EDD0B6
:1015F0000128F2D0F8E7DDF800E001B07047FFFF06
:1016000008B900200AE00649884201DD022005E011
:101610000449884201DD032000E00120704700BF3B
:10162000FEFFBF00FFFF9F0081B0CDF800E011E09A
:101630000846FFF7ABFE16E00846FFF7C1FC12E0D4
:101640000846FFF78FFC0EE00846FFF76FFC0AE044
:10165000012008E00028EBD00128EDD02028EFD0B1
:101660003028F1D0F4E7DDF800E001B07047FFFF6B
:1016700081B0CDF800E003460846FFF78DFA184622
:10168000FFF7E0FB0020034C2468A047DDF800E0F2
:1016900001B070477C00002044F67F77C0F212074B
:1016A0007F1EFDD100BF00BF00BF00BF00BF70475D
:1016B00082B0CDF800E000208DF8040000208DF805
:1016C00005008DF806000020144C2468A047FFF7A1
:1016D000E3FF01A80321FFF713FB01200F4C24684F
:1016E000A04701AB1A78D0B20102581C007841EA39
:1016F00000000102981C0078014302F02000C0B2F3
:101700004009C0B220B1A1F580000146084600E0C2
:101710000846DDF800E002B0704700BF7C00002002
:1017200081B0CDF800E08B4609E05846FFF71CFE7B
:101730000AE05846FFF746FE06E0012004E00028D4
:10174000F3D00128F5D0F8E7DDF800E001B07047EC
:1017500081B01548006840F0010113480160134949
:101760001348016010480168124801400E480160AA
:101770000D4801686FF4802001400B4801600C485F
:1017800001686FF4FE0001400948016006480168E5
:101790006FF0A0500140044801604FF0000106487E
:1017A000016001B0704700BF001002400000FFF070
:1017B00004100240FFFFF6FE2C10024081B0CDF86D
:1017C00000E00B490B48FFF753FF0B480221FFF7DE
:1017D0006BFE0A480221FFF767FE09480221FFF766
:1017E00063FEFFF759FFDDF800E001B0704700BF6E
:1017F0007C1D0000041D00000000002015000020DA
:101800002D00002081B0CDF800E000220221002050
:10181000FFF7D4FE074801460020FFF781FF42F2A0
:1018200080510120FFF700FFFFF736FFDDF800E0F1
:1018300001B07047741D00008EB0CDF800E0FFF7D6
:1018400037FF0D90FFF712FE0C900D98FFF7D8FEB2
:101850008DF82C0006A801460D98FFF75DFE01A843
:1018600001460C98FFF758FE06A8FFF78BFE01A86B
:10187000FFF788FE9DF82C0001281ED11D4801218C
:10188000FFF712FE06A80221FFF70EFE1A480121FB
:10189000FFF70AFE01A80121FFF706FE1748022103
:1018A000FFF702FE45F2FF07C0F2252700BF00BF89
:1018B0007F1EFDD100BF00BF00BF9DF82C00022895
:1018C00005D10F480221FFF7EFFDFFF7E5FE9DF878
:1018D0002C00032805D10B480221FFF7E5FDFFF797
:1018E000DBFE09480221FFF7DFFDDDF800E00EB066
:1018F000704700BF2E0000203C000020490000205F
:1019000050000020620000207500002081B01CF80B
:10191000019B0BF8019BBBEB0A0FF8D101B070479C
:1019200081B04FF000094FF0000CBDEB0A0F04DC52
:10193000BDEB0B0F01DBD446EA464BF8049BBBEB37
:101940000A0FFAD1BCEB0A0F05DDE246D9F800B068
:101950000BF1040BF1E701B07047FFFF81B0FEE728
:1019600001B0704781B002490248016001B0704780
:10197000401901008800002000F00EF800F044FA41
:10198000FFF7F0FF00F000FAFFF73CFFFFF716FF4C
:10199000FFF752FFFCE7FEE781B0CDF800E0464AD2
:1019A000464B474C47494BF68030814206D9464862
:1019B000006840F002014448016011E045F6C05063
:1019C000814206D94048006840F001013E4801606C
:1019D00006E03D4801686FF0070001403A480160A9
:1019E000FFF7B6FE3948036039480460394802EA17
:1019F00000013948016002F0010040B11946364843
:101A0000006800F00200002800D1F8E700E0194665
:101A100002F4803040B10B462F48006800F40030DB
:101A2000002800D1F8E700E00B4602F0805068B1D2
:101A30002948006840F08051274801602648006826
:101A400000F00050002800D1F8E7FFE702F08060C6
:101A500078B12148006840F080611F48016011465C
:101A60001A461D48006800F00060002800D1F8E721
:101A700001E011461A4601F0807070B11648006806
:101A800040F080711448016011461348006800F06E
:101A9000007000B9F9E70A46FFE70C48006800F05B
:101AA0000C01900000F00C00814200D0F5E7DDF859
:101AB00000E001B0704700BF8100010502841D00F5
:101AC00044060100401901000020024004100240B9
:101AD0002C100240FFFF0F00001002402020537422
:101AE000617274204D6561737572656D656E747396
:101AF000002D2D2D2D2D2D2D2D2D2D2D2D2D2D2D43
:101B00002D2D2D2D2D2D2D2D0000414443205661CE
:101B10006C75653A20202000446966666572656EC2
:101B200063653A200020205B50615D004F7665724E
:101B3000666C6F772068617070656E656400556EC5
:101B4000646572666C6F772068617070656E65643D
:101B50000000FFFF3800000039000000FFFFFFFF1A
:101B60000000000000000000000000000000000075
:101B70000000000000000000000000000000000065
:101B8000000000000000000018080000180000001D
:101B90000000000000000000000000000000000045
:101BA0000000000000000000000000000000000035
:101BB00000000000000000000000000030001408D9
:101BC0003500000036000000FFFFFFFF00000000AE
:101BD0000000000000000000000000000000000005
:101BE00000000000000000000000000000000000F5
:101BF00000000000180800001800000000000000AD
:101C000000000000000000000000000000000000D4
:101C100000000000000000000000000000000000C4
:101C2000000000000000000008000008090000009B
:101C30000A000000FFFFFFFF00000000000000009E
:101C40000000000000000000000000000000000094
:101C50000000000000000000000000000000000084
:101C6000180800001800000000000000000000003C
:101C70000000000000000000000000000000000064
:101C80000000000000000000000000000000000054
:101C900000000000040000002A0000002B000000EB
:101CA0002C000000FFFFFFFF00000000000000000C
:101CB0000000000000000000000000000000000024
:101CC00000000000000000000000000018080000F4
:101CD00018080000180800000000000000000000C4
:101CE00000000000000000000000000000000000F4
:101CF00000000000000000000000000000000000E4
:101D0000001120089D0F0000B50F0000A90F000072
:101D10006114000055140000491400003D14000037
:101D200001140000F5130000E91300000D14000079
:101D300031140000FFFFFFFFFFFFFFFFFFFFFFFF6A
:101D4000FFFFFFFFFFFFFFFFFFFFFFFFFFFFFFFFA3
:101D5000FFFFFFFFFFFFFFFFFFFFFFFFFFFFFFFF93
:101D6000FFFFFFFF00000000010203040102030463
:101D700006070809070000000403000065090000C9
:101D80006D0A00000204060800B5DFF814B0DFF8A1
:101D900014A0DFF814C0FFF7B9FD00BD704700BF05
:101DA0000000002076000020DC1A0000FFFFFFFF8B
:101DB000FFFFFFFFFFFFFFFFFFFFFFFFFFFFFFFF33
:101DC000FFFFFFFFFFFFFFFFFFFFFFFFFFFFFFFF23
:101DD000FFFFFFFFFFFFFFFFFFFFFFFFFFFFFFFF13
:101DE000FFFFFFFFFFFFFFFFFFFFFFFFFFFFFFFF03
:101DF000FFFFFFFFFFFFFFFFFFFFFFFFFFFFFFFFF3
:101E0000FFFFFFFFFFFFFFFF00B5DFF810B0DFF8B7
:101E100010A0FFF785FD00BD704700BF0000002047
:101E2000A4000020FFFFFFFFFFFFFFFFFFFFFFFFFA
:00000001FF
