:100000004BEF11F00000000000EF00F000000000D6
:0A0010000000000000000000F3D71C
:10001C000B820BAE18EF00F00368026801680068F1
:08002C000A360232FF0E120039
:0E003400026A016A006A086A036A000E12007E
:100042000B840BAE2CEF00F0010E036E026A016A04
:0A005200006A0A360232FF0E1200A7
:08005C000AAE029E000E120024
:0E006400010100B102D08B9A01D08B8A1200EC
:0E007200010100B102D08B9E01D08B8E1200D6
:0E008000010100B102D08B9801D08B881200D4
:0E008E00010100B102D0899201D089821200D6
:0E009C00010100B102D08B9401D08B841200C0
:0E00AA00010100B102D08D9201D08D821200B2
:1000B80000C16AFF016A0150000A05E1000E68B03C
:0C00C800010E016EF8D76ACF01F01200A3
:0E00D400010100B102D0899801D08988120084
:0E00E200010100B102D08B9C01D08B8C12006A
:0E00F000010100B102D08A9201D08A82120072
:1000FE000F0121B302D00000FBD700C11CFF12007C
:10010E0000C1C9FF016A0150000A05E1000EC7B027
:0C011E00010E016EF8D7C9CF01F01200ED
:0E012A00010100B102D08D9401D08D8412002D
:0E013800010100B102D08D9601D08D8612001B
:0E014600010100B102D08B9801D08B8812000D
:0E015400010100B102D08B9601D08B86120003
:0E016200010100B102D08B9601D08B861200F5
:0E017000010100B102D08B9001D08B801200F3
:0E017E00010100B102D08D9001D08D801200E1
:0E018C00010100B102D0899001D089801200DB
:10019A0000C16AFF016A0150000A05E1000E68B059
:0C01AA00010E016EF8D76ACF00F01200C1
:0E01B600ACB202D00000FCD700C1ADFF1200B9
:0E01C400010100B102D08B9601D08B86120093
:0E01D200010100B102D08B9E01D08B8E120075
:0E01E000010100B102D08B9C01D08B8C12006B
:0E01EE00010100B102D08B9601D08B86120069
:0E01FC00010100B102D08A9001D08A80120069
:0E020A00010100B102D08B9801D08B88120048
:0E021800010100B102D08B9A01D08B8A120036
:0E022600010100B102D08B9201D08B82120038
:0E023400010100B102D08B9801D08B8812001E
:1002420000C1C9FF016A0150000A05E1000EC7B0F2
:0C025200010E016EF8D7C9CF00F01200B9
:0E025E00010100B102D08A9401D08A841200FE
:0E026C00010100B102D08F9201D08F821200EA
:0E027A00010100B102D08B9601D08B861200DC
:100288000CB086EF01F00CA22CEF02F00E6A000E03
:1002980002649DEF01F0F00E0214D8A468EF01F09B
:1002A800023A01380F0B02260138F00B016E0038B4
:1002B8000F0B01260038F00B006E08380F0B0026D4
:1002C8000838F00B086E0E84D89002BE81EF01F05A
:1002D80008360036013602360E2A02BE81EF01F0DA
:1002E80008360036013602360E2A02BE81EF01F0CA
:1002F80008360036013602360E2A0E50036422EF05
:1003080002F0035E0BBC08AE27EF02F0D880800E27
:1003180008640030000E002201220222D8A027EF34
:1003280002F0023201320032034A2CEF02F027EFCA
:1003380002F001C002F000C001F008C000F0086A35
:10034800000E0E860264D4EF01F0F00E0214D8A459
:10035800BCEF01F0023A01380F0B02260138F00B0E
:10036800016E00380F0B01260038F00B006E0E846A
:10037800D89002BE81EF01F00036013602360E2A0F
:1003880002BE81EF01F00036013602360E2A02BEA7
:1003980081EF01F00036013602360E2A81EF01F0B6
:1003A80001C002F000C001F0006A000E0E960E882F
:1003B800026401EF02F0F00E0214D8A4ECEF01F091
:1003C800023A01380F0B02260138F00B016E0E8439
:1003D800D89002BE81EF01F0013602360E2A02BE25
:1003E80081EF01F0013602360E2A02BE81EF01F0DC
:1003F800013602360E2A81EF01F001C002F0016ACF
:10040800000E0E86026431EF02F0F00E0214D8A43A
:1004180010EF02F0023A0E84D89002BE81EF01F08C
:1004280002360E2A02BE81EF01F002360E2A02BE03
:1004380081EF01F002360E2A81EF01F0010E0C6EF9
:10044800FCDD34EF02F0020E0C6E04DE34EF02F035
:10045800040E0C6EDFDD34EF02F0080E0C6EE6DDE4
:02046800120080
:0E046A00010100B102D08B9A01D08B8A1200E2
:0E047800010100B102D08B9601D08B861200DC
:0E048600010100B102D08B9801D08B881200CA
:0E049400010100B102D08F9001D08F801200C4
:0E04A200010100B102D08F9401D08F841200AE
:0E04B000010100B102D08B9801D08B881200A0
:0E04BE00010100B102D0899401D0898412009E
:0804CC000B6A0B86FF0E120003
:1004D400B60E00019B6F010E9C6F000E9D6F010E06
:1004E4009E6FFF0EAF6FFF0EB06F000EB16F000E68
:1004F400B26FFF0EAB6FFF0EAC6F000EAD6F000E50
:10050400AE6FFF0EA76FFF0EA86F000EA96F000E4F
:10051400AA6FAC8A900EAB6E948E949C9EAA03D064
:08052400AECF00F0FBD712007E
:10052C00FE0E00019B6F000E9C6F000E9D6F010E66
:10053C009E6FFF0EAF6FFF0EB06F000EB16F000E0F
:10054C00B26FFF0EAB6FFF0EAC6F000EAD6F000EF7
:10055C00AE6FFF0EA76FFF0EA86F000EA96F000EF7
:10056C00AA6F0F01218B900E226F98849892A4AAE7
:0A057C0003D01DCF00F0FBD71200E2
:100586000B6A0A6A096A086A0E6A03340836045056
:10059600085E0550D8A0053C095E0650D8A0063C6A
:1005A6000A5E0750D8A0073C0B5EE86AD8A0010E89
:1005B6000E5E0336070E0C6E0334083609360A360D
:1005C6000B360E36045003A012D0085E0550D8A094
:1005D600053C095E0650D8A0063C0A5E0750D8A026
:1005E600073C0B5EE86AD8A0010E0E5E11D0082605
:1005F6000550D8B0053C09260650D8B0063C0A2658
:100606000750D8B0073C0B26E86AD8B0010E0E2674
:1006160003360C2ED1D70234083609360A360B3685
:100626000E36045003A012D0085E0550D8A0053C33
:10063600095E0650D8A0063C0A5E0750D8A0073CC3
:100646000B5EE86AD8A0010E0E5E11D00826055092
:10065600D8B0053C09260650D8B0063C0A260750F5
:10066600D8B0073C0B26E86AD8B0010E0E26023633
:10067600070E0C6E0234083609360A360B360E366D
:10068600045002A012D0085E0550D8A0053C095EB1
:100696000650D8A0063C0A5E0750D8A0073C0B5E61
:1006A600E86AD8A0010E0E5E11D008260550D8B013
:1006B600053C09260650D8B0063C0A260750D8B095
:1006C600073C0B26E86AD8B0010E0E2602360C2E21
:1006D600D1D70134083609360A360B360E360450A1
:1006E60002A012D0085E0550D8A0053C095E06504F
:1006F600D8A0063C0A5E0750D8A0073C0B5EE86A05
:10070600D8A0010E0E5E11D008260550D8B0053CC3
:1007160009260650D8B0063C0A260750D8B0073C32
:100726000B26E86AD8B0010E0E260136070E0C6EAF
:100736000134083609360A360B360E36045001A047
:1007460012D0085E0550D8A0053C095E0650D8A018
:10075600063C0A5E0750D8A0073C0B5EE86AD8A0A4
:10076600010E0E5E11D008260550D8B0053C0926AC
:100776000650D8B0063C0A260750D8B0073C0B26D0
:10078600E86AD8B0010E0E2601360C2ED1D70034F9
:10079600083609360A360B360E36045001A012D03A
:1007A600085E0550D8A0053C095E0650D8A0063C58
:1007B6000A5E0750D8A0073C0B5EE86AD8A0010E77
:1007C6000E5E11D008260550D8B0053C0926065005
:1007D600D8B0063C0A260750D8B0073C0B26E86A74
:1007E600D8B0010E0E260036070E0C6E0034083601
:1007F60009360A360B360E36045000A012D0085EB3
:100806000550D8A0053C095E0650D8A0063C0A5EF5
:100816000750D8A0073C0B5EE86AD8A0010E0E5E12
:1008260011D008260550D8B0053C09260650D8B088
:10083600063C0A260750D8B0073C0B26E86AD8B013
:10084600010E0E2600360C2ED1D700B00ED0045065
:1008560008260550D8B0053C09260650D8B0063CF7
:0C0866000A260750D8B0073C0B261200F1
:10087200025006180E6E086A096A0B6A0350076472
:100882002CEF05F006500A6E068E028E03500B6E98
:100892000750036E000E0B647CEF04F00B50075EF2
:1008A200D8B41DEF05F0070E0764EBEF04F0075E06
:1008B20000C008F001C000F002C001F0026A074E59
:1008C2001DEF05F00764C0EF04F0075E00C008F0FA
:1008D20001C000F0016A074E1DEF05F007649EEFAC
:1008E20004F0075E00C008F0006A074E1DEF05F035
:1008F200076485EF04F00AC002F005C001F004C0ED
:1009020000F0086A49EF06F0030E076490EF04F066
:10091200075E08380F0B086E074E1DEF05F0D890E2
:100922000832074E1DEF05F0D8900832074E1DEF32
:1009320005F0D89008321DEF05F0030E0764AFEF03
:1009420004F0075E08380F0B086E0038F00B08261B
:1009520000380F0B006E074E1DEF05F0D8900032E5
:100962000832074E1DEF05F0D89000320832074ECC
:100972001DEF05F0D890003208321DEF05F0030E8E
:100982000764D7EF04F0075E08380F0B086E0038D3
:10099200F00B082600380F0B006E0138F00B002612
:1009A20001380F0B016E074E1DEF05F0D890013292
:1009B20000320832074E1DEF05F0D89001320032A6
:1009C2000832074E1DEF05F0D8900132003208328E
:1009D2001DEF05F0030E076408EF05F0075E083807
:1009E2000F0B086E0038F00B082600380F0B006E54
:1009F2000138F00B002601380F0B016E0238F00BA4
:100A0200012602380F0B026E074E1DEF05F0D8903B
:100A12000232013200320832074E1DEF05F0D89043
:100A22000232013200320832074E1DEF05F0D89033
:100A32000232013200320832096A000E0EAE11EFA4
:100A420006F0081E001E011E021E082A00220122B4
:100A5200022211EF06F00750D8A432EF05F049EF59
:100A620006F0096A02C00AF0028E068E0750035C85
:100A7200076ED8B404EF06F0070E0764D2EF05F054
:100A8200075E0450096E0550046E0650056E066A34
:100A9200074E04EF06F0070E0764A7EF05F0075EA6
:100AA2000450096E0550046E056A074E04EF06F005
:100AB200070E076485EF05F0075E0450096E046AAD
:100AC200074E04EF06F0070E07646CEF05F00AC04C
:100AD20002F049EF06F0030E076477EF05F0075EB8
:100AE20009380F0B096E074E04EF06F0D890093251
:100AF200074E04EF06F0D8900932074E04EF06F0D5
:100B0200D890093204EF06F0030E076496EF05F061
:100B1200075E09380F0B096E0438F00B09260438FA
:100B22000F0B046E074E04EF06F0D8900432093220
:100B3200074E04EF06F0D89004320932074E04EF54
:100B420006F0D8900432093204EF06F0030E07646F
:100B5200BEEF05F0075E09380F0B096E0438F00B83
:100B6200092604380F0B046E0538F00B04260538ED
:100B72000F0B056E074E04EF06F0D89005320432D3
:100B82000932074E04EF06F0D890053204320932DA
:100B9200074E04EF06F0D89005320432093204EF12
:100BA20006F0030E0764EFEF05F0075E09380F0B3E
:100BB200096E0438F00B092604380F0B046E053851
:100BC200F00B042605380F0B056E0638F00B0526D0
:100BD20006380F0B066E074E04EF06F0D890063269
:100BE200053204320932074E04EF06F0D89006327D
:100BF200053204320932074E04EF06F0D89006326D
:100C0200053204320932086A000E0EAE11EF06F008
:100C1200091E041E051E061E092A0422052206229A
:100C220009500826045000220550012206500222D3
:100C32000EBE28EF06F0D8A037EF06F002320132DE
:100C420000320832033E37EF06F043EF06F0D8B029
:100C52003DEF06F0000E081E001E011E021E082AAD
:100C62000022012202220A7E3DEF06F0010E0C6EE6
:100C720044EC01F04BEF06F0020E0C6E44EC01F076
:100C82004BEF06F0040E0C6E0EEC00F04BEF06F08C
:060C9200000E0C6E1200C2
:100C98000B800BAE58EF06F0026A0AAEFF0E026E2A
:0C0CA800016E006E0A360232FF0E1200D0
:100CB400F250026EF29E0500FF6A0150FE6E005073
:080CC400FD6E02BEF28E12006B
:100CCC00420E0001A36F020EA46F000EA56F010E61
:100CDC00A66F0E0E9F6F010EA06F000EA16F010E7E
:100CEC00A26F949AFC51040A02E1948601D0949666
:100CFC009488C66AC79CC79EFC51C612FE51C61288
:100D0C00FD51C712FE5305E0FF51000AD8B4C78C41
:0C0D1C0003D0FF53D8A4C78CC68A120075
:100D280059D00001F3B102D0929001D092800F0106
:100D3800259176D00001F3B102D0949001D094802F
:100D48006FD00001F3B102D0969001D0968068D0A0
:100D58000001F3B102D0949601D0948661D00001CD
:100D6800F3B102D0949801D094885AD00001F3B11D
:100D780002D0949A01D0948A53D00001F3B102D0E2
:100D8800949201D094824CD00001F3B102D0939098
:100D980001D0938045D00001F3B102D0949E01D0D8
:100DA800948E3ED00001F3B102D0949C01D0948C73
:100DB80037D00001F3B102D0949601D0948630D098
:100DC8000001F3B102D0949801D0948829D0010E83
:100DD800006E28D00001F251000AA3E0F251010A86
:100DE800A9E0F251020AADE0F251030AB1E0F25172
:100DF800040AB5E0F251050AB9E0F251060ABDE06D
:100E0800F251070AC1E0F251080AC5E0F251090A95
:100E1800C9E0F2510A0ACDE0F2510B0AD1E0D7D766
:060E2800000E006E120036
:100E2E003ED00F0120870D0E1F6F040E1E6F218501
:100E3E0096EC02F083D00F012087060E1F6F820EF4
:100E4E001E6F218596EC02F079D00F012087030EDC
:100E5E001F6F400E1E6F218596EC02F06FD00F01B2
:100E6E002087010E1F6FA00E1E6F218596EC02F0DB
:100E7E0065D00F012087010E1F6F150E1E6F218585
:100E8E0096EC02F05BD00F0120871F6B8A0E1E6F4F
:100E9E00218596EC02F052D0060E006E59D0000E4F
:100EAE00006E0001F51908E10050F41905E1120E6B
:100EBE00F31902E1F251C00AB4E0000E006EF5190A
:100ECE0008E10050F41905E1250EF31902E1F25183
:100EDE00800AB1E0000E006EF51908E10050F41919
:100EEE0005E14B0EF31902E1F251000AAEE0000EDD
:100EFE00006EF51908E10050F41905E1960EF3198C
:100F0E0002E1F251000AABE0000E006EF51908E1A5
:100F1E000050F41905E1E10EF31902E1F251000A55
:100F2E00A8E0F551000A08E1F451010A05E1F35178
:100F3E00C20A02E1F251000AA6E0AED70001FE0E8F
:100F4E00976F000E986F000E996F010E9A6F006AE0
:020F5E0012007F
:100F600027D0CF0EAF6EAC946AEC02F070D0670E53
:100F7000AF6EAC946AEC02F06AD0CF0EAF6EAC8468
:100F80006AEC02F064D0670EAF6EAC846AEC02F0DB
:100F90005ED0440EAF6EAC846AEC02F058D0220EE4
:100FA000AF6EAC846AEC02F052D0060E006E58D0E0
:100FB0000001000E006EF51908E10050F41905E17A
:100FC000120EF31902E1F251C00ACBE0000E006EDE
:100FD000F51908E10050F41905E1250EF31902E1B5
:100FE000F251800AC4E0000E006EF51908E10050CD
:100FF000F41905E14B0EF31902E1F251000ABDE0CC
:10100000000E006EF51908E10050F41905E1960E86
:10101000F31902E1F251000AB6E0000E006EF51974
:1010200008E10050F41905E1E10EF31902E1F25173
:10103000000AAFE0F551000A08E1F451010A05E1A8
:10104000F351C20A02E1F251000AA9E0AED7B60E8E
:10105000976F010E986F000E996F010E9A6F006ADC
:0210600012007C
:10106200F2C0F6FFF3C0F7FFF4C0F8FF0900F5CFB6
:101072008BF00900F5CF8CF00900F5CF8DF0090057
:10108200F5CF8EF0040E0001F225F66E000EF3216C
:10109200F76E000EF421F86E0900F5CF8FF009000B
:1010A200F5CF90F00900F5CF91F00900F5CF92F05D
:0210B20012002A
:1010B400080E0001F225F66E000EF321F76E000E05
:1010C400F421F86E0900F5CF93F00900F5CF94F000
:0E10D4000900F5CF95F00900F5CF96F0120057
:1010E20059D00001F3B102D0929201D092820F0145
:1010F200259376D00001F3B102D0929801D0928864
:101102006FD00001F3B102D0969201D0968268D0DE
:101112000001F3B102D0949601D0948661D000010F
:10112200F3B102D0949801D094885AD00001F3B15F
:1011320002D0949A01D0948A53D00001F3B102D024
:10114200949401D094844CD00001F3B102D09392D4
:1011520001D0938245D00001F3B102D0949E01D018
:10116200948E3ED00001F3B102D0949C01D0948CB5
:1011720037D00001F3B102D0949601D0948630D0DA
:101182000001F3B102D0949801D0948829D0010EC5
:10119200006E28D00001F251000AA3E0F251010AC8
:1011A200A9E0F251020AADE0F251030AB1E0F251B4
:1011B200040AB5E0F251050AB9E0F251060ABDE0AF
:1011C200F251070AC1E0F251080AC5E0F251090AD8
:1011D200C9E0F2510A0ACDE0F2510B0AD1E0D7D7A9
:0611E200000E006E120079
:1011E800F2C0F6FFF3C0F7FFF4C0F8FF0900F5CF2F
:1011F800FCF0040E0001F225F66E000EF321F76EE6
:10120800000EF421F86E0900F5CFFDF0080EF22566
:10121800F66E000EF321F76E000EF421F86E090049
:10122800F5CFFEF00C0EF225F66E000EF321F76EE8
:10123800000EF421F86E0900F5CFFFF043DD000E33
:04124800006E120022
:10124C0027D0CF0EAF6EAC946AEC02F070D0670E64
:10125C00AF6EAC946AEC02F06AD0CF0EAF6EAC8479
:10126C006AEC02F064D0670EAF6EAC846AEC02F0EC
:10127C005ED0440EAF6EAC846AEC02F058D0220EF5
:10128C00AF6EAC846AEC02F052D0060E006E58D0F1
:10129C000001000E006EF51908E10050F41905E18B
:1012AC00120EF31902E1F251C00ACBE0000E006EEF
:1012BC00F51908E10050F41905E1250EF31902E1C6
:1012CC00F251800AC4E0000E006EF51908E10050DE
:1012DC00F41905E14B0EF31902E1F251000ABDE0DD
:1012EC00000E006EF51908E10050F41905E1960E98
:1012FC00F31902E1F251000AB6E0000E006EF51986
:10130C0008E10050F41905E1E10EF31902E1F25184
:10131C00000AAFE0F551000A08E1F451010A05E1B9
:10132C00F351C20A02E1F251000AA9E0AED7B60E9F
:10133C00976F010E986F000E996F010E9A6F006AED
:02134C0012008D
:10134E00F2C0F6FFF3C0F7FFF4C0F8FF0900F5CFC7
:10135E00FCF0040E0001F225F66E000EF321F76E7E
:10136E00000EF421F86E0900F5CFFDF0080EF225FF
:10137E00F66E000EF321F76E000EF421F86E0900E2
:10138E00F5CFFEF00C0EF225F66E000EF321F76E81
:10139E00000EF421F86E0900F5CFFFF090DC000E80
:0413AE00006E1200BB
:1013B20027D0CF0EAF6EAC946AEC02F070D0670EFD
:1013C200AF6EAC946AEC02F06AD0CF0EAF6EAC8412
:1013D2006AEC02F064D0670EAF6EAC846AEC02F085
:1013E2005ED0440EAF6EAC846AEC02F058D0220E8E
:1013F200AF6EAC846AEC02F052D0060E006E58D08A
:101402000001000E006EF51908E10050F41905E123
:10141200120EF31902E1F251C00ACBE0000E006E87
:10142200F51908E10050F41905E1250EF31902E15E
:10143200F251800AC4E0000E006EF51908E1005076
:10144200F41905E14B0EF31902E1F251000ABDE075
:10145200000E006EF51908E10050F41905E1960E30
:10146200F31902E1F251000AB6E0000E006EF5191E
:1014720008E10050F41905E1E10EF31902E1F2511D
:10148200000AAFE0F551000A08E1F451010A05E152
:10149200F351C20A02E1F251000AA9E0AED7B60E38
:1014A200976F010E986F000E996F010E9A6F006A86
:0214B200120026
:1014B4005DD00001F3B102D0929401D092840F0167
:1014C40025957AD00001F3B102D0969601D0968684
:1014D40073D00001F3B102D0969401D096846CD0FD
:1014E4000001F3B102D0949601D0948665D0000136
:1014F400F3B102D0949801D094885ED00001F3B186
:1015040002D0949A01D0948A57D00001F3B102D04A
:10151400989001D0988050D00001F3B102D09394F8
:1015240001D0938449D00001F3B102D0989401D042
:1015340098840F01239540D00001F3B102D0989212
:1015440001D098820F01239337D00001F3B102D068
:10155400949601D0948630D00001F3B102D09498CF
:1015640001D0948829D0010E006E28D00001F251D8
:10157400000A9FE0F251010AA5E0F251020AA9E033
:10158400F251030AADE0F251040AB1E0F251050A46
:10159400B5E0F251060AB9E0F251070ABDE0F25192
:1015A400080AC1E0F251090AC7E0F2510A0ACDE083
:0E15B400F2510B0AD1E0D7D7000E006E1200E4
:1015C200F2C0F6FFF3C0F7FFF4C0F8FF0900F5CF51
:1015D200FCF0040E0001F225F66E000EF321F76E08
:1015E200000EF421F86E0900F5CFFDF0080EF22589
:1015F200F66E000EF321F76E000EF421F86E09006C
:10160200F5CFFEF00C0EF225F66E000EF321F76E0A
:10161200000EF421F86E0900F5CFFFF066EC06F03B
:06162200000E006E120034
:101628000450000A12E10550000A0FE10650000AB2
:101638000CE10750000A09E1FF0E006EFF0E016E73
:101648007F0E026EFF0E036EA8D0086A096A075063
:10165800D8B4BFEF0BF00350D8B4C4EF0BF002506E
:1016680006180A6E028E068E0E6A02C008F001C0C5
:101678000CF000C00DF004500D5E0550D8A0053CDC
:101688000C5E0650D8A0063C085E086A0C6A0D6A13
:10169800D8A056EF0BF0D89002320132003208324F
:1016A800010E0E6E0750035ED8A063EF0BF07E0E9E
:1016B8000E240326D8B0C9EF0BF069EF0BF07E0EAD
:1016C8000E240326D8A0CEEF0BF0180E0B6E0D36A5
:1016D8000C3608360036013602360E360450005EE7
:1016E8000550D8A0053C015E0650D8A0063C025E15
:1016F80006340E120EA084EF0BF00D808FEF0BF066
:10170800045000260550D8B0053C01260650D8B034
:10171800062802260D900B2E6BEF0BF0B5EF0BF0A1
:10172800D8900036013602360E360450005E055059
:10173800D8A0053C015E0650D8A0063C025E0634DF
:101748000E10010B0D26D8B00C2AD8B4082AD8A43C
:10175800B5EF0BF008320C320D32032AD8B4C9EFBA
:101768000BF00AAE089E0850026E0C50016E0D5028
:10177800006ED1EF0BF0010E66EC02F0D1EF0BF02A
:10178800020E1AEC00F0D1EF0BF0040E0EEC00F094
:0C179800D1EF0BF0080E21EC00F0120065
:0817A400067E39EC04F012008E
:1017AC000B6A0C6A086A0350D8B45AEF0CF002C0EA
:1017BC000AF0028E9E0E035E03AE4AEF0CF0036C31
:1017CC00080E035CD8A017EF0CF0036E083600C0AF
:1017DC0008F001C000F002C001F0026A080E035CC0
:1017EC00D8A017EF0CF0036E083600C008F001C04B
:1017FC0000F0016A080E035CD8A017EF0CF0036E22
:10180C00083600C008F0006A080E035CD8A017EF79
:10181C000CF0036E0836086A0350D8A4D89023EF56
:10182C000CF00350D8B423EF0CF0D89002320132F4
:10183C0000320832032E1BEF0CF00BBC08A034EF67
:10184C000CF0D8A034EF0CF0082AD8B4002AD8B485
:10185C00012AD8B4022A02BE5EEF0CF00AAE5AEF8F
:10186C000CF0021E011E001E081E082AD8B4002A05
:10187C00D8B4012AD8B4022A5AEF0CF0026A016AD1
:10188C00006A086A5AEF0CF00B800BAE65EF0CF097
:10189C00026A0AAE65EF0CF0026E016E006E086E05
:1018AC000A36023265EF0CF00C6A000E66EF0CF093
:1018BC00010E0C6E000E4CEC06F066EF0CF0FF0EF9
:1018CC000250036E0150026E0050016E0850006E03
:0218DC001200F8
:1018DE00086A096A000E07620364F4EF0CF0025006
:1018EE0006180A6E075003267E0ED8A085EF0CF060
:1018FE00035ED8B0F9EF0CF089EF0CF0035ED8A0C0
:10190E00FEEF0CF0028E068E02C00EF001C00BF040
:10191E0000C00DF000500402F4CF0CF0015005028F
:10192E00F4CF00F0F3CF08F00402F3500C26F4507D
:10193E000822000E00220D500502F3500C26F45022
:10194E000822000E002202500402F3500826F45022
:10195E00002202500502016A000E0122F3500026F9
:10196E00F45001220D500602F3500826F4500022C6
:10197E00026A000E012202220B500602F3500026CC
:10198E00F4500122000E02220E500602F3500126E0
:10199E00F450022202BEDCEF0CF00836003601369F
:1019AE0002360306D8B4FEEF0CF0EFEF0CF0D88041
:1019BE00800E08640030000E002201220222D8A000
:1019CE00EFEF0CF0023201320032034AF9EF0CF065
:1019DE000AAE029E000E01EF0DF0010E1AEC00F0A1
:1019EE0001EF0DF0020E0EEC00F001EF0DF0040E03
:0619FE0021EC00F01200D4
:101A0400090E0B6E1E0E0C6EE40E0D6E0D2EFED71F
:0C1A14000C2EFCD70B2EFAD7000012009D
:101A2000F2C0F6F0F3C0F7F0F4C000F0F5C001F03A
:101A3000010E0001F45F000EF55B0050011015E08F
:101A400091C0E1FF92C0E2FFE66A8FC000F090C053
:101A500001F05AEC06F0F6C0E1FFF7C0E2FF00C06B
:0C1A6000E6FF0001F64BF72BDFD7120069
:101A6C000050086E0150006E0250016E0350026E61
:101A7C00036A0B6A0C6A9E0E036E0A6A02AE53EF7F
:101A8C000DF0081E001E011E021E082AD8B4002AE2
:101A9C00D8B4012AD8B4022A0A8E020E0C6E44EC79
:041AAC0001F0120033
:101AB0000001F86BF96B000EF95D02E10A0EF85DAA
:101AC0000BE2F851F625E16EF951F721E26E200E96
:101AD000E66EF84BF92BEFD7F851F625E16EF95188
:101AE000F721E26EE66A010EF85F000EF95BF8512D
:101AF000F625FA6FF951F721FB6F0A0E046E000EFE
:101B0000056E066E076EF2C000F0F3C001F0F4C07F
:101B100002F0F5C003F0C3EC02F008C000F009C009
:101B200001F00AC002F00BC003F0300E0026FAC02C
:101B3000E1FFFBC0E2FF00C0E6FF0A0E046E000EEC
:101B4000056E066E076EF2C000F0F3C001F0F4C03F
:101B500002F0F5C003F0C3EC02F000C0F2F001C0E7
:101B6000F3F002C0F4F003C0F5F0000E046E0318A9
:101B700008E10450021805E10450011802E1005088
:101B8000000A01E105D0010EF85F000EF95BAFD746
:021B9000120041
:101B920099C0E1FF9AC0E2FFF2C0E9FFF3C0EAFF99
:101BA200EECFE6FF97C000F098C001F05AEC06F0C5
:041BB200006A1200B3
:101BB6001DD0E5C0F2F0E6C0F3F0E7C0F4F0FEDCBD
:101BC60020D0E5C0F2F0E6C0F3F0E7C0F4F0F4ECA4
:101BD60008F017D0E5C0F2F0E6C0F3F0E7C0F4F085
:101BE600A7EC09F00ED0010E006E0BD00001E451F7
:101BF600000ADFE0E451010AE4E0E451020AEAE007
:041C0600F2D71200FF
:101C0A000001E451E511E611E71102E1006A28D06A
:101C1A00800E000A006E800EE719005C08E1E651AA
:101C2A00BF0805E1E551FF0802E1E451FE0803E2BD
:101C3A00020E006E15D0800E000A006E800EE719A3
:101C4A00005C08E1E6519F0805E1E551FF0802E161
:101C5A00E451FF0803E2030E006E02D0010E006E8B
:021C6A00120066
:101C6C00E4C0E7F0E5C0E8F00D0E0001E96F0A0EE4
:101C7C00EA6F35D0E7C0F2F0E8C0F3F084DF3AD079
:101C8C00E7C0E9FFE8C0EAFFEE5209E0E7C0F2F076
:101C9C00E8C0F3F078DF0001E74BE82BF1D72AD04E
:101CAC00E7C0E9FFE8C0EAFFEE5209E0E7C0F2F056
:101CBC00E8C0F3F068DF0001E74BE82BF1D7000137
:101CCC00E90EF26F000EF36F5EDFEA0E0001F26FA9
:101CDC00000EF36F58DF0ED0060E006E0CD0000114
:101CEC00E651000AC7E0E651010ACAE0E651020AD1
:081CFC00D7E0F2D7006A1200E4
:101D040018D0E5C0F2F0E6C0F3F094EC06F01CD075
:101D1400E5C0F2F0E6C0F3F071EC08F015D0E5C0D0
:101D2400F2F0E6C0F3F05AEC0AF00ED0010E006EA9
:101D34000BD00001E451000AE4E0E451010AE8E0B8
:0A1D4400E451020AECE0F2D71200AD
:101D4E000001E46BE56BE66BE76BE86BE96BEA6B46
:101D5E0095C0E1FF96C0E2FFE66A93C000F094C022
:101D6E0001F05AEC06F047DEE40E0001F26F000EB1
:101D7E00F36F030EF46F000EF56F4BDE95C0E1FFAF
:101D8E0096C0E2FF010EE66E93C000F094C001F023
:101D9E005AEC06F0E4C0E7F0000E0001E86FE96FC0
:101DAE00EA6FE9C0EAF0E8C0E9F0E7C0E8F0E76BF7
:101DBE00E551E713000EE813E913EA13E9C0EAF060
:101DCE00E8C0E9F0E7C0E8F0E76BE651E713000E74
:101DDE00E813E913EA13200EE415026E050E016EE8
:101DEE0002C000F0015004E00032009EFF0FFBD74E
:101DFE00005208E0000EE75F000EE85B400EE95B64
:101E0E00000EEA5BE7C000F0E8C001F0E9C002F0A6
:061E1E00EAC003F012000F
:101E2400E4C000F0E5C001F0E6C002F0E7C003F052
:101E34001BDE050E046E000E056E200E066E6C0E83
:101E4400076E4BDD660E046E660E056E660E066E3C
:101E54007D0E076E14EC0BF0660E046E660E056EB6
:101E6400660E066E7D0E076E9BDC000E046E000E81
:101E7400056E7A0E066E880E076E2FDD95DC120055
:101E84002FD0E5C0F2F0E6C0F3F0E7C0F4F0E8C00C
:101E9400F5F026EC09F032D0E5C0F2F0E6C0F3F03C
:101EA400E7C0F4F0E8C0F5F0D9EC09F027D0E5C0BC
:101EB400F2F0E6C0F3F0E7C0F4F0E8C0F5F017EC98
:101EC40007F01CD0E5C0F2F0E6C0F3F0E7C0F4F090
:101ED400E8C0F5F0B0EC07F011D0010E006E0ED0A2
:101EE4000001E451000ACDE0E451010AD5E0E451D7
:0E1EF400020ADDE0E451100AE5E0EFD712002B
:101F02000001EC6BED6BE4C0EEF0E5C0EFF0E6C073
:101F1200F0F0E7C0F1F0800EE719006E800E005C71
:101F220008E1000EE65D05E1000EE55D02E1000E4E
:101F3200E45D10E2010EEC6F000EED6FEE6BEF6BE5
:101F4200F06BF16BE451EE5FE551EF5BE651F05B54
:101F5200E751F15BEEC0F2F0EFC0F3F0F0C0F4F045
:101F6200F1C0F5F0E8C0F6F0E9C0F7F0A0DD0B0E25
:101F7200EA6F000EEB6F000E006EEB51005C02E1A7
:101F8200EA51000819E2EA51E825E16EEB51E92134
:101F9200E26E010EEA5D006E000EEB59016E00501A
:101FA200E825E96E0150E921EA6EEECFE6FF010E67
:101FB200EA5F000EEB5BDFD7E8C0E1FFE9C0E2FFBA
:101FC200200EE66EEC51ED111AE0EA6BEB6BEA5172
:101FD200E825E96EEB51E921EA6EEE50200A03E1B1
:101FE200EA4BEB2BF4D7010EEA5F000EEB5BEA51F2
:101FF200E825E16EEB51E921E26E2D0EE66E12004C
:102002000001E66BE76BE4C003F0E5C004F0E4C056
:1020120005F0E5C006F003C0E9FF04C0EAFFEE5098
:10202200200A04E1E651E71101E110D0010EE66F4A
:10203200000EE76F03C0E9FF04C0EAFF05C0E1FF3D
:1020420006C0E2FFEECFE6FF054A062A03C001F012
:1020520004C002F0034A042A01C0E9FF02C0EAFFF9
:10206200EE50000AD8E1E4C000F0E5C001F0120031
:10207200E7C0F2F0E8C0F3F0E9C0F4F031EC08F0A8
:10208200E4C0F2F0E5C0F3F0E6C0F4F05AEC08F078
:1020920095C0E1FF96C0E2FFE66A93C000F094C0EB
:0820A20001F05AEC06F01200F7
:1020AA000001E46B020EE56FE66B27DE0001E46BCC
:1020BA007A0EE56F230EE66F000EE76F77DD010EED
:1020CA00E46F800EE56F250EE66F000EE76FE86F8E
:0620DA00D4DE93DC1200CD
:1020E0000900F5CFE6FF0006FBE10106F9E1120069
:1020F0001A0E0001E46F230EE56F000EE66F8A0EE4
:10210000E76F230EE86F000EE96FB3DF3C0E0001AE
:10211000E46F000EE56F020EE66FA8DD150E0001FC
:10212000E46F000EE56F020EE66FA0DD2D0E0001DC
:10213000E46F000EE56F020EE66F98DD63DC1200BF
:102140000001DC6BDD6BDE6BDF6BE06BE16BE26B88
:10215000E36BFDDD00C0E0F001C0E1F002C0E2F0A1
:1021600003C0E3F000C0E4F001C0E5F002C0E6F017
:1021700003C0E7F057DE00C0DCF001C0DDF002C0B4
:10218000DEF003C0DFF0E0C0E4F0E1C0E5F0E2C063
:10219000E6F0E3C0E7F039DD00C0DBF0E0C0E4F0DA
:1021A000E1C0E5F0E2C0E6F0E3C0E7F0C70EE86F9B
:1021B000000EE96FA6DEDCC0E4F0DDC0E5F0DEC0B5
:1021C000E6F0DFC0E7F0B30EE86F000EE96F99DECE
:1021D000C70EE46F000EE56F14DFB30EE46F000E60
:1021E000E56F0FDFDB51010A33E12E0EE46F000EC5
:1021F000E56F010EE66F3ADDC70E0001E46F000ED9
:10220000E56F020EE66F32DD510E0001E46F000E45
:10221000E56F010EE66F2ADDB30E0001E46F000EDC
:10222000E56F010EE66F22DD5F0E0001E46F000E28
:10223000E56F020EE66F1ADDF40E0B6E820E0C6E69
:10224000050E0D6E0D2EFED70C2EFCD70B2EFAD7D9
:102250000001DB51020A09E1660EE46F000EE56F32
:10226000020EE66F03DD02EC0DF00001DB51030A04
:1022700009E1780EE46F000EE56F020EE66FF6DC02
:1022800002EC0DF05E0E0001E46F000EE56F020E31
:06229000E66FECDC120019
:0E229600C9EC11F007DF29DF50DFFED7FFD7BC
:1023920010EE15F0760E006E010E016EA40EF66EB2
:0E23A200220EF76E000EF86E70EC10F01200B6
:1022A4002D2D2D2D2D2D2D2D2D2D2D2D2D2D2D2D5A
:0822B4002D2D2D2D2D2D2D00E7
:0122BC000021
:0E22BD004144432056616C75653A2020200094
:1022CB0020205374617274204D6561737572656D56
:0522DB00656E74730044
:0D22E000446966666572656E63653A2000AC
:0122ED0000F0
:0722EE0020205B50615D0040
:1022F5004F766572666C6F772068617070656E6584
:02230500640072
:10230700556E646572666C6F772068617070656E74
:03231700656400FA
:10231A008C010001700100017E010001C40100016D
:10232A000A0200011802000126020001FC01000154
:10233A00D2010001E0010001EE010001B004000138
:10234A00FFFFFFFFFFFFFFFFFFFFFFFFFFFFFFFF93
:10235A00FFFFFFFFFFFFFFFFFFFFFFFFFFFFFFFF83
:10236A00FFFFFFFFFFFFFFFFFFFFFFFFFFFFFFFF73
:10237A000200000000000000000000000100000050
:08238A000E01000142020001F6
:020000040030CA
:0E00000015137F7CF98B91FFFFC0FFE0FF40DE
:00000001FF
